{
  "_format": "hh-sol-artifact-1",
  "contractName": "Cashier",
  "sourceName": "contracts/Cashier.sol",
  "abi": [
    {
      "inputs": [],
      "stateMutability": "nonpayable",
      "type": "constructor"
    },
    {
      "anonymous": false,
      "inputs": [
        {
          "indexed": true,
          "internalType": "address",
          "name": "previousOwner",
          "type": "address"
        },
        {
          "indexed": true,
          "internalType": "address",
          "name": "newOwner",
          "type": "address"
        }
      ],
      "name": "OwnershipTransferred",
      "type": "event"
    },
    {
      "inputs": [],
      "name": "DOMAIN_SEPARATOR",
      "outputs": [
        {
          "internalType": "bytes32",
          "name": "",
          "type": "bytes32"
        }
      ],
      "stateMutability": "view",
      "type": "function"
    },
    {
      "inputs": [
        {
          "internalType": "uint256",
          "name": "profileId",
          "type": "uint256"
        },
        {
          "internalType": "uint256",
          "name": "essenceId",
          "type": "uint256"
        },
        {
          "internalType": "address",
          "name": "collector",
          "type": "address"
        },
        {
          "internalType": "uint256",
          "name": "price",
          "type": "uint256"
        },
        {
          "internalType": "bytes",
          "name": "permissionSig",
          "type": "bytes"
        },
        {
          "internalType": "bytes",
          "name": "collectPreData",
          "type": "bytes"
        }
      ],
      "name": "preProcess",
      "outputs": [],
      "stateMutability": "payable",
      "type": "function"
    },
    {
      "inputs": [
        {
          "internalType": "address",
          "name": "newBeneficiary",
          "type": "address"
        }
      ],
      "name": "setBeneficiary",
      "outputs": [],
      "stateMutability": "nonpayable",
      "type": "function"
    },
    {
      "inputs": [
        {
          "internalType": "address",
          "name": "newPermissionedSigner",
          "type": "address"
        }
      ],
      "name": "setPermissionedSigner",
      "outputs": [],
      "stateMutability": "nonpayable",
      "type": "function"
    },
    {
      "inputs": [
        {
          "internalType": "address",
          "name": "newOwner",
          "type": "address"
        }
      ],
      "name": "transferOwnership",
      "outputs": [],
      "stateMutability": "nonpayable",
      "type": "function"
    }
  ],
  "bytecode": "0x60806040527329c25240c364bd9cae5f5fe30ef8591971ce09ec600160006101000a81548173ffffffffffffffffffffffffffffffffffffffff021916908373ffffffffffffffffffffffffffffffffffffffff160217905550735b3999bc2e8c46f75bf629da951559d83e34fbdd600260006101000a81548173ffffffffffffffffffffffffffffffffffffffff021916908373ffffffffffffffffffffffffffffffffffffffff1602179055503480156100ba57600080fd5b50336000806101000a81548173ffffffffffffffffffffffffffffffffffffffff021916908373ffffffffffffffffffffffffffffffffffffffff16021790555061154b8061010a6000396000f3fe60806040526004361061004a5760003560e01c80631c31f7101461004f5780632b112e8b146100785780633644e515146100a15780636390ffa2146100cc578063f2fde38b146100e8575b600080fd5b34801561005b57600080fd5b5061007660048036038101906100719190610b73565b610111565b005b34801561008457600080fd5b5061009f600480360381019061009a9190610b73565b610275565b005b3480156100ad57600080fd5b506100b66103d9565b6040516100c39190610f84565b60405180910390f35b6100e660048036038101906100e19190610bc5565b61045d565b005b3480156100f457600080fd5b5061010f600480360381019061010a9190610b73565b61063b565b005b3373ffffffffffffffffffffffffffffffffffffffff1660008054906101000a900473ffffffffffffffffffffffffffffffffffffffff1673ffffffffffffffffffffffffffffffffffffffff161461019f576040517f08c379a00000000000000000000000000000000000000000000000000000000081526004016101969061114a565b60405180910390fd5b600073ffffffffffffffffffffffffffffffffffffffff16600260009054906101000a900473ffffffffffffffffffffffffffffffffffffffff1673ffffffffffffffffffffffffffffffffffffffff161415610231576040517f08c379a0000000000000000000000000000000000000000000000000000000008152600401610228906110aa565b60405180910390fd5b80600260006101000a81548173ffffffffffffffffffffffffffffffffffffffff021916908373ffffffffffffffffffffffffffffffffffffffff16021790555050565b3373ffffffffffffffffffffffffffffffffffffffff1660008054906101000a900473ffffffffffffffffffffffffffffffffffffffff1673ffffffffffffffffffffffffffffffffffffffff1614610303576040517f08c379a00000000000000000000000000000000000000000000000000000000081526004016102fa9061114a565b60405180910390fd5b600073ffffffffffffffffffffffffffffffffffffffff16600160009054906101000a900473ffffffffffffffffffffffffffffffffffffffff1673ffffffffffffffffffffffffffffffffffffffff161415610395576040517f08c379a000000000000000000000000000000000000000000000000000000000815260040161038c906110ea565b60405180910390fd5b80600160006101000a81548173ffffffffffffffffffffffffffffffffffffffff021916908373ffffffffffffffffffffffffffffffffffffffff16021790555050565b60007f8b73c3c69bb8fe3d512ecc4cf759cc79239f7b179b0ffacaa9a75d522b39400f6104046107fd565b805190602001207fc89efdaa54c0f20c7adf612882df0950f5a951637e0307cdcb4c672f298b8bc64630604051602001610442959493929190610ff2565b60405160208183030381529060405280519060200120905090565b610465610a96565b84848101906104749190610c88565b83600001846020018560400183815250838152508360ff1660ff168152505050506105266104ef7f6f4a0d21dd4a8f81c8f5793158432b0e565072315999ff1f6f2417fcd98aa9e2898c8c8b6040516020016104d4959493929190610f9f565b6040516020818303038152906040528051906020012061083a565b600160009054906101000a900473ffffffffffffffffffffffffffffffffffffffff16836000015184602001518560400151610873565b7357e12b7a5f38a7f9c23ebd0400e6e53f2a45f27173ffffffffffffffffffffffffffffffffffffffff1663be10bc6160405180606001604052808a73ffffffffffffffffffffffffffffffffffffffff1681526020018c81526020018b81525085856040518463ffffffff1660e01b81526004016105a79392919061118a565b602060405180830381600087803b1580156105c157600080fd5b505af11580156105d5573d6000803e3d6000fd5b505050506040513d601f19601f820116820180604052508101906105f99190610b9c565b5060008611156106305761062f600260009054906101000a900473ffffffffffffffffffffffffffffffffffffffff16876109a2565b5b505050505050505050565b3373ffffffffffffffffffffffffffffffffffffffff1660008054906101000a900473ffffffffffffffffffffffffffffffffffffffff1673ffffffffffffffffffffffffffffffffffffffff16146106c9576040517f08c379a00000000000000000000000000000000000000000000000000000000081526004016106c09061114a565b60405180910390fd5b600073ffffffffffffffffffffffffffffffffffffffff168173ffffffffffffffffffffffffffffffffffffffff161415610739576040517f08c379a00000000000000000000000000000000000000000000000000000000081526004016107309061108a565b60405180910390fd5b60008060009054906101000a900473ffffffffffffffffffffffffffffffffffffffff169050816000806101000a81548173ffffffffffffffffffffffffffffffffffffffff021916908373ffffffffffffffffffffffffffffffffffffffff1602179055508173ffffffffffffffffffffffffffffffffffffffff168173ffffffffffffffffffffffffffffffffffffffff167f8be0079c531659141344cd1fd0a4f28419497f9722a3daafe3b4186f6b6457e060405160405180910390a35050565b60606040518060400160405280600c81526020017f636f6e7363696f757364616f0000000000000000000000000000000000000000815250905090565b60006108446103d9565b82604051602001610856929190610f38565b604051602081830303815290604052805190602001209050919050565b7f7fffffffffffffffffffffffffffffff5d576e7357a4501ddfe92f46681b20a08160001c11156108d9576040517f08c379a00000000000000000000000000000000000000000000000000000000081526004016108d09061116a565b60405180910390fd5b6000600186858585604051600081526020016040526040516108fe9493929190611045565b6020604051602081039080840390855afa158015610920573d6000803e3d6000fd5b5050506020604051035190508473ffffffffffffffffffffffffffffffffffffffff168173ffffffffffffffffffffffffffffffffffffffff161461099a576040517f08c379a00000000000000000000000000000000000000000000000000000000081526004016109919061112a565b60405180910390fd5b505050505050565b804710156109e5576040517f08c379a00000000000000000000000000000000000000000000000000000000081526004016109dc9061110a565b60405180910390fd5b60008273ffffffffffffffffffffffffffffffffffffffff1682604051610a0b90610f6f565b60006040518083038185875af1925050503d8060008114610a48576040519150601f19603f3d011682016040523d82523d6000602084013e610a4d565b606091505b5050905080610a91576040517f08c379a0000000000000000000000000000000000000000000000000000000008152600401610a88906110ca565b60405180910390fd5b505050565b6040518060600160405280600060ff16815260200160008019168152602001600080191681525090565b600081359050610acf816114b9565b92915050565b600081359050610ae4816114d0565b92915050565b60008083601f840112610afc57600080fd5b8235905067ffffffffffffffff811115610b1557600080fd5b602083019150836001820283011115610b2d57600080fd5b9250929050565b600081359050610b43816114e7565b92915050565b600081519050610b58816114e7565b92915050565b600081359050610b6d816114fe565b92915050565b600060208284031215610b8557600080fd5b6000610b9384828501610ac0565b91505092915050565b600060208284031215610bae57600080fd5b6000610bbc84828501610b49565b91505092915050565b60008060008060008060008060c0898b031215610be157600080fd5b6000610bef8b828c01610b34565b9850506020610c008b828c01610b34565b9750506040610c118b828c01610ac0565b9650506060610c228b828c01610b34565b955050608089013567ffffffffffffffff811115610c3f57600080fd5b610c4b8b828c01610aea565b945094505060a089013567ffffffffffffffff811115610c6a57600080fd5b610c768b828c01610aea565b92509250509295985092959890939650565b600080600060608486031215610c9d57600080fd5b6000610cab86828701610b5e565b9350506020610cbc86828701610ad5565b9250506040610ccd86828701610ad5565b9150509250925092565b610ce081611207565b82525050565b610cef81611207565b82525050565b610cfe81611219565b82525050565b610d15610d1082611219565b611269565b82525050565b6000610d2783856111cf565b9350610d3483858461125a565b610d3d83611273565b840190509392505050565b6000610d556026836111eb565b9150610d6082611284565b604082019050919050565b6000610d786002836111fc565b9150610d83826112d3565b600282019050919050565b6000610d9b602b836111eb565b9150610da6826112fc565b604082019050919050565b6000610dbe6002836111cf565b9150610dc98261134b565b602082019050919050565b6000610de1603a836111eb565b9150610dec82611374565b604082019050919050565b6000610e04602c836111eb565b9150610e0f826113c3565b604082019050919050565b6000610e27601d836111eb565b9150610e3282611412565b602082019050919050565b6000610e4a6011836111eb565b9150610e558261143b565b602082019050919050565b6000610e6d6020836111eb565b9150610e7882611464565b602082019050919050565b6000610e906000836111e0565b9150610e9b8261148d565b600082019050919050565b6000610eb36019836111eb565b9150610ebe82611490565b602082019050919050565b606082016000820151610edf6000850182610cd7565b506020820151610ef26020850182610f0b565b506040820151610f056040850182610f0b565b50505050565b610f1481611243565b82525050565b610f2381611243565b82525050565b610f328161124d565b82525050565b6000610f4382610d6b565b9150610f4f8285610d04565b602082019150610f5f8284610d04565b6020820191508190509392505050565b6000610f7a82610e83565b9150819050919050565b6000602082019050610f996000830184610cf5565b92915050565b600060a082019050610fb46000830188610cf5565b610fc16020830187610ce6565b610fce6040830186610f1a565b610fdb6060830185610f1a565b610fe86080830184610f1a565b9695505050505050565b600060a0820190506110076000830188610cf5565b6110146020830187610cf5565b6110216040830186610cf5565b61102e6060830185610f1a565b61103b6080830184610ce6565b9695505050505050565b600060808201905061105a6000830187610cf5565b6110676020830186610f29565b6110746040830185610cf5565b6110816060830184610cf5565b95945050505050565b600060208201905081810360008301526110a381610d48565b9050919050565b600060208201905081810360008301526110c381610d8e565b9050919050565b600060208201905081810360008301526110e381610dd4565b9050919050565b6000602082019050818103600083015261110381610df7565b9050919050565b6000602082019050818103600083015261112381610e1a565b9050919050565b6000602082019050818103600083015261114381610e3d565b9050919050565b6000602082019050818103600083015261116381610e60565b9050919050565b6000602082019050818103600083015261118381610ea6565b9050919050565b600060a08201905061119f6000830186610ec9565b81810360608301526111b2818486610d1b565b905081810360808301526111c581610db1565b9050949350505050565b600082825260208201905092915050565b600081905092915050565b600082825260208201905092915050565b600081905092915050565b600061121282611223565b9050919050565b6000819050919050565b600073ffffffffffffffffffffffffffffffffffffffff82169050919050565b6000819050919050565b600060ff82169050919050565b82818337600083830152505050565b6000819050919050565b6000601f19601f8301169050919050565b7f4f776e61626c653a206e6577206f776e657220697320746865207a65726f206160008201527f6464726573730000000000000000000000000000000000000000000000000000602082015250565b7f1901000000000000000000000000000000000000000000000000000000000000600082015250565b7f4e65772062656e6566696369617279206164647265737320697320746865207a60008201527f65726f2061646472657373000000000000000000000000000000000000000000602082015250565b7f3078000000000000000000000000000000000000000000000000000000000000600082015250565b7f416464726573733a20756e61626c6520746f2073656e642076616c75652c207260008201527f6563697069656e74206d61792068617665207265766572746564000000000000602082015250565b7f4e6577207065726d697373696f6e65642061646472657373206973207468652060008201527f7a65726f20616464726573730000000000000000000000000000000000000000602082015250565b7f416464726573733a20696e73756666696369656e742062616c616e6365000000600082015250565b7f494e56414c49445f5349474e4154555245000000000000000000000000000000600082015250565b7f4f776e61626c653a2063616c6c6572206973206e6f7420746865206f776e6572600082015250565b50565b7f494e56414c49445f5349474e41545552455f535f5641554c4500000000000000600082015250565b6114c281611207565b81146114cd57600080fd5b50565b6114d981611219565b81146114e457600080fd5b50565b6114f081611243565b81146114fb57600080fd5b50565b6115078161124d565b811461151257600080fd5b5056fea264697066735822122006613226587625e88bd3a84ea7a1eb823b3b4ed21a8947d4a2a8313b74d9ef0d64736f6c63430008010033",
  "linkReferences": {},
  "deployedLinkReferences": {}
}